:020000020000FC
:040000001FC046C017
:100040000FEF0ABB07BB10E011BB02BB02E00EBF03
:100050000FE50DBF02E005BF00E40BBF789400E0A0
:10006000F0E0EAEBE00F08F4F39514911BBB18BB2A
:1000700004D003950A3099F3F3CF47E056E960E8DE
:100080006A95F1F75A95E1F74A95D1F708950895E1
:10009000EF93FF934F9320E0F0E0E4ECE20F08F4DD
:1000A000F39534913BBB38BBE8DF2395263009F04C
:1000B000F3CF4F91FF91EF911895C0F9A4B09992A9
:0A00C00082F880988883C6A1868E1E
:00000001FF
